{
  "contractName": "Auction",
  "abi": [
    {
      "constant": true,
      "inputs": [],
      "name": "history",
      "outputs": [
        {
          "name": "",
          "type": "string"
        }
      ],
      "payable": false,
      "stateMutability": "view",
      "type": "function"
    },
    {
      "constant": true,
      "inputs": [],
      "name": "product",
      "outputs": [
        {
          "name": "",
          "type": "string"
        }
      ],
      "payable": false,
      "stateMutability": "view",
      "type": "function"
    },
    {
      "constant": true,
      "inputs": [],
      "name": "transaction",
      "outputs": [
        {
          "name": "",
          "type": "string"
        }
      ],
      "payable": false,
      "stateMutability": "view",
      "type": "function"
    },
    {
      "constant": true,
      "inputs": [],
      "name": "users",
      "outputs": [
        {
          "name": "",
          "type": "string"
        }
      ],
      "payable": false,
      "stateMutability": "view",
      "type": "function"
    },
    {
      "inputs": [],
      "payable": false,
      "stateMutability": "nonpayable",
      "type": "constructor"
    },
    {
      "constant": false,
      "inputs": [
        {
          "name": "u",
          "type": "string"
        }
      ],
      "name": "addUsers",
      "outputs": [],
      "payable": false,
      "stateMutability": "nonpayable",
      "type": "function"
    },
    {
      "constant": true,
      "inputs": [],
      "name": "getUsers",
      "outputs": [
        {
          "name": "",
          "type": "string"
        }
      ],
      "payable": false,
      "stateMutability": "view",
      "type": "function"
    },
    {
      "constant": false,
      "inputs": [
        {
          "name": "ca",
          "type": "string"
        }
      ],
      "name": "addproduct",
      "outputs": [],
      "payable": false,
      "stateMutability": "nonpayable",
      "type": "function"
    },
    {
      "constant": true,
      "inputs": [],
      "name": "getproduct",
      "outputs": [
        {
          "name": "",
          "type": "string"
        }
      ],
      "payable": false,
      "stateMutability": "view",
      "type": "function"
    },
    {
      "constant": false,
      "inputs": [
        {
          "name": "ra",
          "type": "string"
        }
      ],
      "name": "addhistory",
      "outputs": [],
      "payable": false,
      "stateMutability": "nonpayable",
      "type": "function"
    },
    {
      "constant": true,
      "inputs": [],
      "name": "gethistory",
      "outputs": [
        {
          "name": "",
          "type": "string"
        }
      ],
      "payable": false,
      "stateMutability": "view",
      "type": "function"
    },
    {
      "constant": false,
      "inputs": [
        {
          "name": "ba",
          "type": "string"
        }
      ],
      "name": "addtransaction",
      "outputs": [],
      "payable": false,
      "stateMutability": "nonpayable",
      "type": "function"
    },
    {
      "constant": true,
      "inputs": [],
      "name": "gettransaction",
      "outputs": [
        {
          "name": "",
          "type": "string"
        }
      ],
      "payable": false,
      "stateMutability": "view",
      "type": "function"
    }
  ],
  "bytecode": "0x60806040523480156200001157600080fd5b506040805190810160405280600581526020017f656d707479000000000000000000000000000000000000000000000000000000815250600090805190602001906200005f92919062000150565b506040805190810160405280600581526020017f656d70747900000000000000000000000000000000000000000000000000000081525060019080519060200190620000ad92919062000150565b506040805190810160405280600581526020017f656d70747900000000000000000000000000000000000000000000000000000081525060029080519060200190620000fb92919062000150565b506040805190810160405280600581526020017f656d707479000000000000000000000000000000000000000000000000000000815250600390805190602001906200014992919062000150565b50620001ff565b828054600181600116156101000203166002900490600052602060002090601f016020900481019282601f106200019357805160ff1916838001178555620001c4565b82800160010185558215620001c4579182015b82811115620001c3578251825591602001919060010190620001a6565b5b509050620001d39190620001d7565b5090565b620001fc91905b80821115620001f8576000816000905550600101620001de565b5090565b90565b610e91806200020f6000396000f3fe6080604052600436106100b3576000357c010000000000000000000000000000000000000000000000000000000090048062ce8e3e146100b8578063035a04841461014857806331960e1d146101d85780633d892f5a146102a05780635723ad36146103685780638f14f7151461043057806398daac83146104c0578063b20b15f714610550578063bf9ce952146105e0578063c7982e9414610670578063c99de57e14610738578063f2020275146107c8575b600080fd5b3480156100c457600080fd5b506100cd610858565b6040518080602001828103825283818151815260200191508051906020019080838360005b8381101561010d5780820151818401526020810190506100f2565b50505050905090810190601f16801561013a5780820380516001836020036101000a031916815260200191505b509250505060405180910390f35b34801561015457600080fd5b5061015d6108fa565b6040518080602001828103825283818151815260200191508051906020019080838360005b8381101561019d578082015181840152602081019050610182565b50505050905090810190601f1680156101ca5780820380516001836020036101000a031916815260200191505b509250505060405180910390f35b3480156101e457600080fd5b5061029e600480360360208110156101fb57600080fd5b810190808035906020019064010000000081111561021857600080fd5b82018360208201111561022a57600080fd5b8035906020019184600183028401116401000000008311171561024c57600080fd5b91908080601f016020809104026020016040519081016040528093929190818152602001838380828437600081840152601f19601f82011690508083019250505050505050919291929050505061099c565b005b3480156102ac57600080fd5b50610366600480360360208110156102c357600080fd5b81019080803590602001906401000000008111156102e057600080fd5b8201836020820111156102f257600080fd5b8035906020019184600183028401116401000000008311171561031457600080fd5b91908080601f016020809104026020016040519081016040528093929190818152602001838380828437600081840152601f19601f8201169050808301925050505050505091929192905050506109b6565b005b34801561037457600080fd5b5061042e6004803603602081101561038b57600080fd5b81019080803590602001906401000000008111156103a857600080fd5b8201836020820111156103ba57600080fd5b803590602001918460018302840111640100000000831117156103dc57600080fd5b91908080601f016020809104026020016040519081016040528093929190818152602001838380828437600081840152601f19601f8201169050808301925050505050505091929192905050506109d0565b005b34801561043c57600080fd5b506104456109ea565b6040518080602001828103825283818151815260200191508051906020019080838360005b8381101561048557808201518184015260208101905061046a565b50505050905090810190601f1680156104b25780820380516001836020036101000a031916815260200191505b509250505060405180910390f35b3480156104cc57600080fd5b506104d5610a8c565b6040518080602001828103825283818151815260200191508051906020019080838360005b838110156105155780820151818401526020810190506104fa565b50505050905090810190601f1680156105425780820380516001836020036101000a031916815260200191505b509250505060405180910390f35b34801561055c57600080fd5b50610565610b2a565b6040518080602001828103825283818151815260200191508051906020019080838360005b838110156105a557808201518184015260208101905061058a565b50505050905090810190601f1680156105d25780820380516001836020036101000a031916815260200191505b509250505060405180910390f35b3480156105ec57600080fd5b506105f5610bcc565b6040518080602001828103825283818151815260200191508051906020019080838360005b8381101561063557808201518184015260208101905061061a565b50505050905090810190601f1680156106625780820380516001836020036101000a031916815260200191505b509250505060405180910390f35b34801561067c57600080fd5b506107366004803603602081101561069357600080fd5b81019080803590602001906401000000008111156106b057600080fd5b8201836020820111156106c257600080fd5b803590602001918460018302840111640100000000831117156106e457600080fd5b91908080601f016020809104026020016040519081016040528093929190818152602001838380828437600081840152601f19601f820116905080830192505050505050509192919290505050610c6a565b005b34801561074457600080fd5b5061074d610c84565b6040518080602001828103825283818151815260200191508051906020019080838360005b8381101561078d578082015181840152602081019050610772565b50505050905090810190601f1680156107ba5780820380516001836020036101000a031916815260200191505b509250505060405180910390f35b3480156107d457600080fd5b506107dd610d22565b6040518080602001828103825283818151815260200191508051906020019080838360005b8381101561081d578082015181840152602081019050610802565b50505050905090810190601f16801561084a5780820380516001836020036101000a031916815260200191505b509250505060405180910390f35b606060008054600181600116156101000203166002900480601f0160208091040260200160405190810160405280929190818152602001828054600181600116156101000203166002900480156108f05780601f106108c5576101008083540402835291602001916108f0565b820191906000526020600020905b8154815290600101906020018083116108d357829003601f168201915b5050505050905090565b606060018054600181600116156101000203166002900480601f0160208091040260200160405190810160405280929190818152602001828054600181600116156101000203166002900480156109925780601f1061096757610100808354040283529160200191610992565b820191906000526020600020905b81548152906001019060200180831161097557829003601f168201915b5050505050905090565b80600390805190602001906109b2929190610dc0565b5050565b80600290805190602001906109cc929190610dc0565b5050565b80600090805190602001906109e6929190610dc0565b5050565b606060038054600181600116156101000203166002900480601f016020809104026020016040519081016040528092919081815260200182805460018160011615610100020316600290048015610a825780601f10610a5757610100808354040283529160200191610a82565b820191906000526020600020905b815481529060010190602001808311610a6557829003601f168201915b5050505050905090565b60028054600181600116156101000203166002900480601f016020809104026020016040519081016040528092919081815260200182805460018160011615610100020316600290048015610b225780601f10610af757610100808354040283529160200191610b22565b820191906000526020600020905b815481529060010190602001808311610b0557829003601f168201915b505050505081565b606060028054600181600116156101000203166002900480601f016020809104026020016040519081016040528092919081815260200182805460018160011615610100020316600290048015610bc25780601f10610b9757610100808354040283529160200191610bc2565b820191906000526020600020905b815481529060010190602001808311610ba557829003601f168201915b5050505050905090565b60018054600181600116156101000203166002900480601f016020809104026020016040519081016040528092919081815260200182805460018160011615610100020316600290048015610c625780601f10610c3757610100808354040283529160200191610c62565b820191906000526020600020905b815481529060010190602001808311610c4557829003601f168201915b505050505081565b8060019080519060200190610c80929190610dc0565b5050565b60038054600181600116156101000203166002900480601f016020809104026020016040519081016040528092919081815260200182805460018160011615610100020316600290048015610d1a5780601f10610cef57610100808354040283529160200191610d1a565b820191906000526020600020905b815481529060010190602001808311610cfd57829003601f168201915b505050505081565b60008054600181600116156101000203166002900480601f016020809104026020016040519081016040528092919081815260200182805460018160011615610100020316600290048015610db85780601f10610d8d57610100808354040283529160200191610db8565b820191906000526020600020905b815481529060010190602001808311610d9b57829003601f168201915b505050505081565b828054600181600116156101000203166002900490600052602060002090601f016020900481019282601f10610e0157805160ff1916838001178555610e2f565b82800160010185558215610e2f579182015b82811115610e2e578251825591602001919060010190610e13565b5b509050610e3c9190610e40565b5090565b610e6291905b80821115610e5e576000816000905550600101610e46565b5090565b9056fea165627a7a723058202eb5e3f705ea74bc687f020cb2fc2cb51a90ef09905ff2e17ff0517bfa06cea20029",
  "source": "// SPDX-License-Identifier: MIT\r\npragma solidity >= 0.4.0 <= 0.9;\r\n\r\ncontract Auction {\r\n    string public users;\r\n    string public product;\r\n    string public history;\r\n    string public transaction;\r\n   \r\n\r\n    function addUsers(string memory u) public {\r\n        users = u;\t\r\n    }\r\n\r\n    function getUsers() public view returns (string memory) {\r\n        return users;\r\n    }\r\n\r\n\r\n    function addproduct(string memory ca) public {\r\n        product = ca;\r\n    }\r\n\r\n    function getproduct() public view returns (string memory) {\r\n        return product;\r\n    }\r\n\r\n    function addhistory(string memory ra) public {\r\n        history = ra;\r\n    }\r\n\r\n    function gethistory() public view returns (string memory) {\r\n        return history;\r\n    }\r\n\r\n    function addtransaction(string memory ba) public {\r\n        transaction = ba;\r\n    }\r\n\r\n    function gettransaction() public view returns (string memory) {\r\n        return transaction;\r\n    }\r\n\r\n   \r\n\r\n    constructor() public {\r\n    users = \"empty\";\r\n    product = \"empty\";\r\n    history = \"empty\";\r\n    transaction = \"empty\";\r\n    \r\n    \r\n    }\r\n}",
  "sourcePath": "C:\\Users\\koram\\OneDrive\\Desktop\\Secure Online E-Auction System using Blockchain Technology\\extension\\contracts\\Auction.sol",
  "compiler": {
    "name": "solc",
    "version": "0.5.1+commit.c8a2cb62.Emscripten.clang"
  },
  "schemaVersion": "3.4.16",
  "updatedAt": "2026-02-12T07:26:48.962Z",
  "networkType": "ethereum",
  "devdoc": {
    "methods": {}
  },
  "userdoc": {
    "methods": {}
  }
}